:020000040800F2
:10000000783B0020A5020008994500082944000813
:100010002D44000839230008415100080000000069
:100020000000000000000000000000000D020008B9
:100030000124000800000000510200082D4E0008B5
:10004000BF020008BF020008BF020008BF0200088C
:10005000BF020008BF020008BF020008BF0200087C
:10006000BF020008BF020008BF020008A923000861
:10007000BF020008BF020008BF020008BF0200085C
:10008000BF020008BF020008BF020008BF0200084C
:10009000BF020008BF020008BF020008BF0200083C
:1000A000BF020008BF020008BF020008BF0200082C
:1000B000BF020008BF020008BF020008BF0200081C
:1000C000BF020008BF020008BF020008BF0200080C
:1000D000BF020008115100082151000831510008E9
:1000E000BF020008BF020008BF020008BF020008EC
:1000F000BF020008BF020008BF020008BF020008DC
:10010000BF020008BF020008BF020008BF020008CB
:10011000BF020008BF020008454E0008BF020008E9
:10012000BF020008BF020008BF020008BF020008AB
:1001300000F002F800F05AF80AA090E8000C82449F
:100140008344AAF10107DA4501D100F04FF8AFF27C
:10015000090EBAE80F0013F0010F18BFFB1A43F0A5
:100160000103184750AB000070AB0000103A24BFE9
:1001700078C878C1FAD8520724BF30C830C144BF0C
:1001800004680C607047000000230024002500264E
:10019000103A28BF78C1FBD8520728BF30C148BFEA
:1001A0000B60704766290AF08080642900F0648142
:1001B000752900F06181732900F0058700207047E0
:1001C0001FB59DE8030000F031FC00F08DFF040036
:1001D0000020002108F05EFF401C6060002000212C
:1001E00008F042FFE0601FBD10B510BD01F05FFADE
:1001F0001146FFF7E5FF05F0D1FB01F085FA03B4E6
:10020000FFF7F2FF03BC04F0D4FF0000224B196893
:100210000868B0E8F00F80F30988BFF36F8F4FF0E4
:10022000000080F311884EF00D0E704700000000B2
:1002300006480068006880F3088862B661B6BFF3BC
:100240004F8FBFF36F8F00DF00BF00BF08ED00E0EE
:10025000EFF30980BFF36F8F0F4B1A6820E9F00F9F
:10026000106008B54FF4007080F31188BFF34F8F12
:10027000BFF36F8F07F00EFD4FF0000080F3118881
:10028000BDE8084019680868B0E8F00F80F30988F5
:10029000BFF36F8F704700BF5C000020EFF3058055
:1002A000704700000948804709480047FEE7FEE71D
:1002B000FEE7FEE7FEE7FEE7FEE7FEE7FEE7FEE716
:1002C00004480549054A064B70470000414E0008A6
:1002D0003101000878350020783B00207837002075
:1002E00078370020704770B5064600F083FB05683C
:1002F00006F10B0020F00704B4429CBF002070BD43
:100300002B466A68BAB11068A04210D304F1080104
:1003100088423CBF5068586007D35168101941604B
:100320001168091B016058601460101D70BD1346F0
:100330005268002AE7D12146284600F063FB0028D6
:10034000DED170BD70B50446051F00F053FB006898
:10035000002C14BF446870BD002C18BFAC423CBFD9
:1003600020466468F8D301680A18AA4218BF45609D
:1003700003D12A6805461144016028684119A14249
:100380001CBF6C6070BD61686960216808442860AA
:1003900070BD00000FB4044910B503AA029800F024
:1003A00017FE10BC5DF814FB400000200FB41CB514
:1003B000084B06AA7B4469460090059800F0D9FDD9
:1003C00004460020694600F0E7FD20461CBC5DF8AD
:1003D00014FB0000E10B000070B50446856900685D
:1003E000C10601D5302600E02026C00707D070BD29
:1003F000D4E9012130469047206A401C20626D1EDE
:10040000F6D570BD70B5044685690078C00707D180
:1004100070BDD4E9012120209047206A401C206251
:100420006D1EF6D570BD70B50C460546012A05D087
:100430002878800600D5EA69002302E0012305E060
:100440005B1C934202D2E05C0028F9D1A869E6184F
:10045000C01AA861286A184428622846FFF7BCFF22
:1004600004E0D5E9012114F8010B9047B442F8D318
:100470002846FFF7C7FF70BD2DE9F041064600246E
:1004800010687529314616A510D0AFF300800028FA
:1004900002DA404213A507E031688A0701D512A5A8
:1004A00002E0490704D511A5012401E0AFF3008063
:1004B00000210A2206F1240709E0B0FBF2FCB0FBA0
:1004C000F2F302FB1C00303078541846491C002817
:1004D000F3D123462A463046BDE8F04100F0DCBAAD
:1004E000000000002D0000002B0000002000000094
:1004F0002DE9F05F894604464FF0000ADFF874B139
:10050000FB44C0F820A02046E1688847002874D04A
:10051000252806D0D4E901219047206A401C20629A
:10052000F1E700265F462046E16888472028054617
:1005300007DB312D05D2781910F8200C08B10643DD
:10054000F1E7B00701D526F00406C4F81CA0002787
:10055000C4F818A02A2D09D0284604F023FE38B389
:1005600004EB8708303DC8F8185019E059F8041B0F
:10057000204604EB87029161E1688847012F054618
:1005800018D1E069002820DA26F020061DE0D8F80E
:10059000180000EB800005EB40003038C8F8180068
:1005A0002046E1688847054604F0FCFD0028EED1AE
:1005B000012F0AD02E2D08D12046E16888477F1CE4
:1005C0000546022F46F02006C4DBA069002803DAA6
:1005D000404246F00106A061F00701D026F0100667
:1005E0006C2D0BD0682D09D04C2D39D06A2D35D00B
:1005F000742D35D07A2D33D016E038E0E1682F46DF
:1006000020468847B842054609D16C2F26D04FF4C2
:100610008060E168064320468847054604E06C2F69
:100620001AD04FF4807006430DB3A5F1410019288C
:1006300002D8203546F400664A4629462046266000
:100640004E46FFF7AFFD80B101280BD0F61D26F016
:10065000070000F1080956E74020E4E78020D8E7CA
:100660000020D6E706F104094DE7284652E7206A44
:10067000BDE8F09F08A700000FB400B58DB010A929
:10068000099000910B904FF0FF300A9000200C90E1
:10069000064878440690064878446A4607900F99C1
:1006A00009A800F0BBFC0DB05DF814FBA709000021
:1006B000BF0900002DE9FF5F1D464FF0FF3B91464B
:1006C0004FF000085F46D5E90146A96901987F1CF3
:1006D0008847296A824688470028F6D1BAF1FF3F49
:1006E0000CD0002E24F4C06419DD600614D5BAF1D4
:1006F0002B0F09D0BAF12D0F0ED103E0584604B0EC
:10070000BDE8F09F44F48064A96901987F1C884784
:10071000761E8246002E02DDBAF1300F03D0B9F109
:10072000000F26D032E0A969761E01987F1C44F4A0
:1007300000748847002E824605DDBAF1780F06D096
:10074000BAF1580F03D0B9F1000F10D01EE0B9F183
:10075000000F02D0B9F1100F18D1A969761E0198C7
:100760007F1C24F4007488478246102002E0082091
:1007700000E00A20814609E0A96908FB0908761E05
:1007800001987F1C44F4007488478246002E05DDE2
:100790004946504600F02EFC0028EDDAE969019840
:1007A0008847A00502D46FF00100A8E7E00725D133
:1007B000600613D5600502D5C8F1000000E0404690
:1007C00029680A1D2A600968220501D5087015E00C
:1007D000220701D5088011E008600FE02868011D9C
:1007E00029600068210502D580F8008006E0210715
:1007F00002D5A0F8008001E0C0F8008038467EE70E
:1008000010B5431C02E010F8011B71B18107FAD149
:100810004FF0013202C88C1A8C4314EAC211F9D08D
:10082000C01A0A0603D0C01E10BDC01A10BD0A04AB
:1008300001D0801E10BD0902FCD0401E10BD032A4D
:1008400040F2308010F0030C00F0158011F8013BED
:10085000BCF1020F624498BF11F801CB00F8013BD4
:1008600038BF11F8013BA2F1040298BF00F801CB98
:1008700038BF00F8013B11F0030300F0FF83083A92
:10088000C0F0088051F8043B083A51F804CBA0E8C6
:100890000810F5E7121D5CBF51F8043B40F8043B1B
:1008A000AFF30080D20724BF11F8013B11F801CB50
:1008B00048BF11F8012B24BF00F8013B00F801CB21
:1008C00048BF00F8012B704702F0FF0343EA032200
:1008D00042EA024200F002B84FF000020429C0F0E0
:1008E000128010F0030C00F01B80CCF1040CBCF162
:1008F000020F18BF00F8012BA8BF20F8022BA1EBB4
:100900000C0100F00DB85FEAC17C24BF00F8012B98
:1009100000F8012B48BF00F8012B70474FF0000290
:1009200000B5134694469646203922BFA0E80C50E5
:10093000A0E80C50B1F12001BFF4F7AF090728BFC0
:10094000A0E80C5048BF0CC05DF804EB890028BF3C
:1009500040F8042B08BF704748BF20F8022B11F065
:10096000804F18BF00F8012B704700004FF0013C8A
:1009700050F8042B51F8043B9A4221D1A2EB0C030E
:10098000934313EACC1317D150F8042B51F8043BCE
:100990009A4215D1A2EB0C03934313EACC130BD16B
:1009A00050F8042B51F8043B9A4209D1A2EB0C03F6
:1009B000934313EACC13DBD04FF00000704700BF25
:1009C000D01A01BAB1FA81F101F0180122FA01F04E
:1009D000CB40C1F12001DBB2C0B2C01A2CFA01F346
:1009E000D11A914311EAC311E6D17047704770479D
:1009F00070477047004870472035002070477047A7
:100A00007047704738B504460A4600206946AFF380
:100A10000080002808BF38BD02460099204600F03B
:100A200067FB012038BD012000F03ABEF8B5AFF3F6
:100A30000080054600200C46102000BF0646A8197D
:100A4000A0420DD9324669460020AFF3008007006E
:100A500008BF00F025FE0098A04218BF0546C41943
:100A6000FFF7C8FF05600746F01D20F00700461994
:100A7000284600F00AF8B44208BFF8BDA21B314670
:100A80003868BDE8F84000F033BB00210160C0E9E0
:100A900001107047102070472DE9F0470D46994628
:100AA0009246044600F124080168880604D5E069EE
:100AB00021F01001216000E00120A84201DD471B68
:100AC00000E00027A1697A1902EB0900081AA06169
:100AD0002078C00602D42046FFF77EFC002608E0FE
:100AE000D4E901211AF806009047206A401C761CC0
:100AF00020624E45F4DB2078C0060AD52046FFF779
:100B00006BFC06E0D4E9012130209047206A401CAC
:100B10002062381EA7F10107F4DC07E0D4E90121C7
:100B200018F805009047206A401C2062281EA5F195
:100B30000105F3DC2046FFF765FC2078000602D5AE
:100B40000220BDE8F0870120FBE770472DE9FF4F49
:100B50000C461E464FF0FF378BB0D2E90001DDF89E
:100B600060800A908A46C1F30A5505B93D460021C6
:100B700008464FF00000BAF1000F00F4400005DA1B
:100B800000EB80004FF4400101EA50004FEA905919
:100B9000B9F1010F00DDB9460A9850EA4A000ED0BB
:100BA00044F61050A5F2FF3545432F14B8F1000F5D
:100BB0001ED07542291E1EDDC9F100021CE0B8F1ED
:100BC000010F4FF0000001D0302103E0F24305E0B7
:100BD0002154401CB042FBDB30460022002121544E
:100BE0000B99C1F80880C1E900200FB0BDE8F08F73
:100BF000BD1B6D1CDEE74A4600DA694206A800F01C
:100C0000D9FC06AB93E8070003AB83E80700504626
:100C10000A9900F0C8FD8DE80700A0F500501F38C4
:100C200000900398002D0ADD42F21F014A46084455
:100C3000002303A90390684601F031F809E0A0F50C
:100C400000504A461F38002303A90390684601F06C
:100C50003BF88DE807000004000C03D04FF0FF3094
:100C6000410800E01046B8F1000F03D000220092C6
:100C700015461EE0751E05D400F054FA3032625558
:100C80006D1EF9D5B3460122084302D000227F1C15
:100C900004E02078302801D100227F1E002A099725
:100CA00084D01DE0112D07DA00F03CFA3032625595
:100CB0006D1C50EA0102F5D1084302D00098C8B17A
:100CC0000EE00021681E05E0235C625C6354225440
:100CD000401E491C8142F7DBAB46A81B401E099011
:100CE000002004F80B000B98099AC0F80880C0E9AE
:100CF000002B7AE711264FF0000857E72DE9F04F57
:100D000088460446D21D22F0070191B0D1E90001C6
:100D1000CDE90A0104F016FA02460B98C00F01D083
:100D20002D2007E02068810701D52B2002E020213B
:100D300001EAC000032A099001D0072A05DB034617
:100D40004146204600F03CFA0BE12078800601D5B0
:100D5000E06900E00620B8F1650F814606D0B8F1E1
:100D6000660F18D0B8F1670F70D131E00020B9F1EB
:100D7000110F009001DB112301E009F101030AAA20
:100D800001A90CA8FFF7E2FEDDE90C70002609F1CD
:100D90000105834647E001204B4600904FF0004795
:100DA0000AAA01A90CA8FFF7D1FEDDE90DB00C9944
:100DB0005D46002610B909F101000D18B9EB0500D8
:100DC00003D4C0F1FF3609F10105A5EB09002BE0C2
:100DD000B9F1010F01DA4FF001090020B9F1110F4B
:100DE0000090484601DD112300E003460AAA01A94C
:100DF0000CA8FFF7ABFEDDE90C704D4600268346DC
:100E0000207800070AD4AB4500DA5D4601A8012D21
:100E100004DD411911F8011C302907D04F4502DAD1
:100E200017F1040F04DA012082460FE06D1EEEE791
:100E3000002F02DCED1B3E4403E0781CA84200DDDD
:100E40007D1CB81B00F1010A4FF000472078000715
:100E500003D4AA4501DB4FF0FF3A0021B7F1004F60
:100E60000DF143088DF8431024D002202B23002FCE
:100E700001DA7F422D230A21021EA0F1010000DCCD
:100E80005FB197FBF1FC97FBF1F201FB1C7C17466D
:100E90000CF1300C08F801CDEEE7A8F10100037069
:100EA0002188090501D5452100E06521A0F101084F
:100EB00000F8011C09980FA9A1EB0807FF1D00B15C
:100EC0000120411901EBEA70A1693844081A401E5B
:100ED000A0612078C00602D42046FFF77DFA099869
:100EE00028B1D4E901219047206A401C2062207873
:100EF000C00622D52046FFF76FFA1EE0002E04DB65
:100F0000B34502DD01A8805D00E03020D4E9012175
:100F10009047206A401C2062761CAAF101005FEA1B
:100F2000000A0AD100F0E0F8C0680168405CD4E92A
:100F300001219047206A401C2062281EA5F101056E
:100F4000DCDC07E0D4E9012118F8010B9047206AA6
:100F5000401C2062381EA7F10107F3DC2046FFF792
:100F600051FA032011B041E601694A1C0261087878
:100F7000704700B58FB0CDE90131002105910549D9
:100F80007944CDE9031011466846FFF7B1FA0FB076
:100F900000BD0000E5FFFFFF0A6802F8010B0A60D0
:100FA000704710B5436913B1AFF3008001E0FFF75C
:100FB0003AFA012010BD127800F124010A700022D3
:100FC0004A700122EDE711684FF0FF32E9E70000B7
:100FD000074B70B50D467B44FFF7CBFF0446284610
:100FE00000F05AFB10B14FF0FF3070BD204670BDCD
:100FF000434800003A2800D2303820F02002412A2D
:1010000001D3A2F13700884201D34FF0FF3070477F
:10101000026811441378016018467047D160054991
:1010200079445161044979441162002111611146EA
:1010300000F006B9EDFFFFFF85010000426842B1F4
:10104000016811F8013B23B1521EC0E90012184695
:1010500070470121C160881E704742685AB1C36859
:10106000016843B983688B4205D0491E521CC0E910
:101070000012002070474FF0FF30704710B5203A43
:10108000C0F00B80B1E81850203AA0E81850B1E841
:101090001850A0E81850BFF4F5AF5FEA027C24BFF7
:1010A000B1E81850A0E8185044BF18C918C0BDE8EE
:1010B00010405FEA827C24BF51F8043B40F8043BB7
:1010C00008BF7047D20728BF31F8023B48BF11F86C
:1010D000012B28BF20F8023B48BF00F8012B7047C6
:1010E0000048704718350020004870473835002008
:1010F000034640688C46002818BF88423CBF034620
:101100004068F8D318681844884207D00CF10300EF
:1011100020F00700001D411A521A0146081D0A60FE
:10112000FFF710B930B5B0F10A024FEA900E71F135
:1011300000034EEA817EB0EB0E0061EB91014FEAB5
:10114000101E4EEA017E10EB0E0041EB11114FEA2A
:10115000102E4EEA016E10EB0E0041EB11214FEA0A
:10116000104E4EEA014E10EB0E0041EB11414018BB
:1011700041F100014FEAD00040EA41704FEAD1014D
:1011800010EB80054FEA810444EA907444EB0104BB
:101190006D1944EB0404521BA3414FF0000348BFF8
:1011A0000A3200D530BD401C41F1000130BD10B500
:1011B000044600F0A1FA0068005D00F0010010BDD7
:1011C0002DE9F0411F46044603260168072A01F471
:1011D000006004DB08B116A505E016A503E008B120
:1011E00015A500E015A521F010002060A069C01E23
:1011F000A0610FB1401EA0612046FFF7EDF84FB18E
:10120000D4E9012138469047206A401C2062C01C66
:10121000206206E0206AFAE7D4E9012115F8010B03
:101220009047761EF8D22046FFF7ECF8BDE8F08133
:101230004E414E006E616E00494E4600696E66007A
:101240002DE9F34F4FF0000A0C4656468DB00120B1
:101250000C9001F10C000B9062690B9801219047F2
:10126000051E2DD0252D2CD0216A8847C0B162697A
:101270000B9801219047216A88470028F7D16269BD
:10128000411E0B98904700E0761CA1690D98884795
:10129000216A88470028F7D1E1690D988847DBE784
:1012A000A1690D988847A842074601D1761CD3E76B
:1012B000E1690D9888477F1C02D1BAF1000F6FD009
:1012C0006CE162690B9800273D46394690472A2811
:1012D00004D162690B98012190470125DFF8D08283
:1012E00062690B9801219047A0F130010A290AD2C6
:1012F0004745E5DC07EB870100EB4107303FDFD4D2
:1013000045F01005ECE7E90601D46FF000476C28C2
:101310000AD04C2814D0682815D06A280DD074281B
:101320001CD07A281AD01DE062690B9801219047E1
:101330006C2802D045F0040514E045F002050DE0EC
:1013400045F020050AE062690B9801219047682862
:1013500002D045F0080505E045F4006562690B9888
:1013600001219047C4E9015765283DD019DC582870
:101370007AD00CDC452837D004DC252826D041283B
:101380009ED131E046282FD0472899D12CE05B2808
:1013900077D0612828D063287CD0642823D15AE0F4
:1013A000F7E06F2848D008DC66281DD067281BD0DE
:1013B000692821D06E2816D127E0702845D07328DF
:1013C00068D0752847D078280DD14DE0A1690D98D7
:1013D0008847252805463FF469AFE1690D9888479D
:1013E0006D1C3FF46AAFD9E00D9923466A466FF051
:1013F0000100AFF30080C6E045F0400023464FF007
:1014000000026060A80736D43EE0E8077FF447AFEB
:101410002068011D21600068290501D506701BE7C1
:10142000290701D5068017E7A90703D5F117C0E9F9
:10143000006111E706600FE745F0400023464FF0DA
:1014400008026060A80716D41EE040F60E0125EAE7
:101450000100606016E045F0400023464FF00A02AC
:101460006060A80707D40FE045F040006060A8075F
:1014700008D5234610220D996FF00100AFF30080CC
:1014800081E007E0102223460D996FF00100FFF77D
:1014900011F978E04FF0000963284F46C8464B46E3
:1014A000CB4602D05B2807D039E02079C00601D4B2
:1014B0000120A060012732E06269D4F80CB00B98DB
:1014C000012190475E2807D14FF001094946626922
:1014D000D4F80CB00B989047216939B900210A461D
:1014E00003AB43F82120491C0829FADBD8B3216952
:1014F00049B308F1010862690B98012190475D2802
:10150000F4D1B9F1000F09D0002003A951F820202F
:10151000D24341F82020401C0828F7DB03AB2069A8
:10152000002820794FEA40701ED05B462246CDF855
:101530000080CDE901970D9900286FF0010020DAB5
:10154000AFF300801FE0C11703AA00EBD1614B117C
:1015500021F01F0102EB8302411A13680120884029
:1015600003431360C7E719E00D99224600286FF086
:101570000100009702DAAFF3008004E0AFF30080CF
:1015800001E0AFF3008000280ADA401C06D10C9875
:1015900020B14FF0FF300FB0BDE8F08F5046FAE7B2
:1015A000E90701D10AF1010A064400200C9053E634
:1015B000CCCCCC0C2DE9F047814616468AB0354894
:1015C00078440DC88DE80D0032487844801C03AC87
:1015D0000DC884E80D0041F69B300844372190FB8C
:1015E000F1F290FBF1F5A5F1800501FB12041B3C23
:1015F00002D56442012000E00020DFF898A0804678
:101600000027FA44AAF1BE0A0EE0E0070AD03246EB
:10161000684607EB470101230AEB810100F054FB08
:101620008DE8070064107F1C002CEED1194F7F4419
:10163000AE3F19E0E80715D007EB04100DF1180ACA
:1016400090E80E008AE80E00C068F04201D19819B7
:1016500008903246012306A903A800F035FB03AB2E
:1016600083E807006D10641C002DE3D14FF00103E7
:1016700032466946B8F1000F03A802D000F00FFB14
:1016800001E000F021FBC9E90001C9F808200AB017
:10169000BDE8F087D8960000007B00F0800070471E
:1016A00010B500F03FF8BDE8104000F036B87546C0
:1016B000FFF716FDAE4605006946534620F00700C9
:1016C000854618B020B5FEF7FBFDBDE820404FF081
:1016D00000064FF000074FF000084FF0000B21F01C
:1016E0000701AC46ACE8C009ACE8C009ACE8C009E9
:1016F000ACE8C0098D46704710B5FFF7F5FC001D3A
:1017000010BD00BF9179000010B50446AFF3008012
:101710002046BDE81040FEF772BD002801D003F05E
:1017200048BD704710B5012805D0002103A000F086
:1017300021F8012010BD09A1F8E7000053494752E4
:10174000544D454D3A204F7574206F662068656191
:1017500070206D656D6F7279000000003A20486559
:101760006170206D656D6F727920636F7272757034
:101770007465640070B505460C460A2000E06D1CD7
:1017800003F019FD35B128780028F8D102E0641C77
:1017900003F011FD14B120780028F8D1BDE87040A5
:1017A0000A2003F008BD5FEA400C08BF91F0000F6B
:1017B0004FEA8C234FEAC12243EA51514FEA1C50B1
:1017C00018BF00F5F0404FEA300018BF41F000416B
:1017D0005FEA6C5C00F02980BCF1FF3F08BF40F07D
:1017E00080407047130C06BF12044FF0100C4FF0EE
:1017F000000C130E04BF12020CF1080C130F04BFEF
:1018000012010CF1040C930F04BF92000CF1020CB6
:10181000D30F04BF52000CF1010C11464FF000022F
:10182000A0F11F00A0EB0C00704711F0004F08BFA3
:10183000704731F000413FF4D5AF0B0C06BF0904EF
:101840004FF0100C4FF0000C0B0E04BF09020CF10E
:10185000080C0B0F04BF09010CF1040C8B0F04BF23
:1018600089000CF1020CCB0F04BF49000CF1010CF4
:10187000CCF12003A0EB0C0022FA03F302FA0CF2E5
:1018800041EA030100F10100704720F07F4C80EA3B
:10189000030023F07F47ACEB070303F57C5300F014
:1018A000004003F1FF032DE980494FEA154B09B4CD
:1018B0004FEA144325EA0B4E24EA03480FF20426AC
:1018C00006EB132749083E785FEA320203FB0667FE
:1018D000C7F5000707FB06F64FEA54374FEAD6462E
:1018E00006F1020607FB066CCCF1005C4FEA1C47D0
:1018F0002CEA074C07FB06F40CFB06F504EB154637
:101900004FEA961634BF00204FF000404FEAD1371F
:1019100006FB07FC4FEA1C4C0CFB0BF7D21B03FB2E
:101920000CF761EB07010CFB0EF7B0EB074072EB15
:1019300017420CFB08F734BFA2EB0742B2EB074299
:1019400061EB17414FEA0C444FEA910706FB07FC95
:101950004FEA1C4C0CFB0BF7B0EBC74072EB573255
:1019600003FB0CF734BFA2EBC742B2EBC74261EBFB
:1019700057310CFB0EF7B0EBC70072EB57720CFB44
:1019800008F734BFA2EBC702B2EBC70261EB577195
:10199000039F4FEA816141EA921104EBCC044FEAC4
:1019A000D1374FEA826206FB07FC42EA90124FEA07
:1019B00080604FEA1C4C0CFB0BF7D21B03FB0CF7AF
:1019C00061EB07010CFB0EF7B0EB074072EB17421F
:1019D0000CFB08F734BFA2EB0742B2EB074261EB06
:1019E00017414FEA8C554FEA910704EB9C2406FB04
:1019F00007FC4FEA1C4C0CFB0BF7B0EBC74072EB3B
:101A0000573203FB0CF734BFA2EBC742B2EBC7421D
:101A100061EB57310CFB0EF7B0EBC70072EB57725E
:101A20000CFB08F734BFA2EBC702B2EBC70261EBB5
:101A3000577115EB4C254FEA816141EA92114FEA4B
:101A400082624FEAD13742EA901206FB07FC44F16A
:101A500000044FEA80604FEA1C4C0CFB0BF7D21BD2
:101A600003FB0CF761EB07010CFB0EF7B0EB074033
:101A700072EB17420CFB08F734BFA2EB0742B2EB44
:101A8000074261EB174115EB1C154FEA813141EA22
:101A900092414FEA823242EA90424FEA80304FEA66
:101AA0000C7644F1000448EA03434EEA0B484FF039
:101AB000000EB2EB080C71EB030724BF62463946F7
:101AC0004EEB0E0E4FF0000B0018524149414BEB0C
:101AD0000B0BB2EB080C71EB03077BF1000B24BF7F
:101AE000624639464EEB0E0E4FF0000B0018524185
:101AF00049414BEB0B0BB2EB080C71EB03077BF18D
:101B0000000B24BF624639464EEB0E0E51EA020727
:101B100018BF46F0010616EB0E7655F1000254F19F
:101B2000000103D5BDE88901BDE80088BDE8890151
:101B3000BDE80048B619524141EB0101A3F1010390
:101B4000704780807F7E7D7C7B7A7978777676752A
:101B50007473727171706F6E6E6D6C6C6B6A6A69A2
:101B60006868676666656464636362616160605F3C
:101B70005F5E5E5D5D5C5C5B5B5A5A5959585857B5
:101B8000575656555555545453535252525151501D
:101B900050504F4F4F4E4E4D4D4D4C4C4C4B4B4B70
:101BA0004A4A4A49494948484847474747464646B6
:101BB00045454544444444434343434242424241F1
:101BC0004141002B9C4630D477002BD01CB54FEA06
:101BD000370703B44FF010004FF01001BAF1000FB7
:101BE00006D0BCF1000FDCBF40F0080040F0080157
:101BF0004FF000000FBCBDE810400BF1010BBBF132
:101C0000010F08BF5FEA170722BF12F1010211F1AD
:101C100001014FF0004143F1000300F0004043EAAE
:101C200000007047F9D35708D0E746EA064613F19B
:101C3000400F4FEA16461FDD13F1200FDFBF16439A
:101C40000A46002120335B42BED0C3F1200746EA9A
:101C5000064602FA07F74FEA164646EA0706C3F1B8
:101C6000200722FA03F201FA07F721FA03F14FF0F5
:101C7000000342EA0702A7E746EA020646EA0646EA
:101C80004FEA164646EA0106BCBF46EA0646360C4F
:101C90004FF000034FF000024FF0000194E72DE9F0
:101CA000804C9A46934670B491E8380007C831EAF0
:101CB000400C48BF34EA430C03D5FFF7E6FDFFF7BD
:101CC00080FFF0BCBDE8008C2DE9804C9A4693461D
:101CD00070B491E8380007C810F0804F08BF13F0C7
:101CE000804F03D100F005F8FFF76BFFF0BCBDE8B3
:101CF000008C20F07F4780EA030023F07F4C07EB45
:101D00000C03A3F57C5300F00040A3F1FE0392F016
:101D1000000F00F0B38095F0000F00F077802DE900
:101D200001494FEA11404FEA144621EA004800FBFE
:101D300006FC24EA064708FB06F607FB08F800FB4A
:101D400007F718EB06484CEB164C4FEA124B18EB12
:101D500007484FEA15464CEB174022EA0B4E0BFBA7
:101D600006FC25EA06470EFB06F607FB0EFE0BFBFC
:101D700007F71EEB064E4CEB164C4FF000061EEB21
:101D8000074E4CEB174B18EB0B0840F1000018EB1B
:101D90000E0B58EB000840F100008F1A4FF00001C5
:101DA0003CBFC943661B14BFB5EB040C00213CBF0C
:101DB000C943F61B4FEA17444EEA8E0E27EA044544
:101DC0004FEA1C4704FB07622CEA074C05FB07F7A8
:101DD0000CFB05F604FB0CFC16EB074642EB174226
:101DE00016EB0C4642EB1C421BEB060658EB0202BC
:101DF000414146EA9E0601D5BDE80189B619524126
:101E000041EB0101A3F10103BDE801894FEA14454B
:101E10004FEA114724EA054621EA074C05FB07F47F
:101E200006FB07F70CFB06F105FB0CFC11EB074169
:101E300044EB17444FEA124711EB0C4144EB1C44AE
:101E400022EA074C05FB07F206FB07F70CFB06F638
:101E500005FB0CFC16EB074642EB174216EB0C4653
:101E600042EB1C456A1854F1000148BF7047B6198F
:101E7000524141EB0101A3F10103704795F0000FBE
:101E800037D04FEA11424FEA144721EA024624EACA
:101E9000074C02FB07F106FB07F70CFB06F402FBFD
:101EA0000CFC14EB074441EB17414FEA154714EBC8
:101EB0000C4441EB1C4125EA074C02FB07F506FBED
:101EC00007F70CFB06F602FB0CFC16EB074645EB8E
:101ED000174516EB0C4645EB1C42121951F1000157
:101EE00048BF7047B619524141EB0101A3F101030C
:101EF00070474FEA14454FEA114724EA054621EAA4
:101F0000074C05FB07F106FB07F70CFB06F24FF049
:101F1000000605FB0CFC12EB074241EB174112EBEC
:101F20000C4251EB1C4148BF7047921841EB010134
:101F3000A3F10103704770B504460025206880684E
:101F400000F00100F0B12068806820F001002168F5
:101F5000886001F05FF805460EE001F05BF8401B79
:101F6000022809D9A06A40F01000A062E06A40F09F
:101F70000100E062012070BD2068806800F001006F
:101F80000028EAD10020F6E770B505466C6AA06A21
:101F900000F05000E0B9A06A40F40070A062206830
:101FA000806800F46020B0F5602F0DD1207B58B917
:101FB000A06A20F48070A062A06A00F4805018B972
:101FC000A06A40F00100A062204600F04DFB03E053
:101FD000206A016B2846884770BD70B505466C6A5B
:101FE000A06A40F04000A062E06A40F00400E062B5
:101FF000204600F03BFB70BD70B50446656A28467C
:1020000000F033FB70BD000038B504460025002009
:1020100000902068806800F0010080BB2068806824
:1020200040F0010021688860164800681649B0FB3E
:10203000F1F0009002E00098401E00900098002807
:10204000F9D100F0E7FF054613E000F0E3FF401B85
:1020500002280ED9A06A40F01000A062E06A40F0A9
:102060000100E06200BF002084F8240000BF0120CE
:1020700038BD2068806800F001000028E5D000200D
:10208000F6E700000000002040420F002DE9F04775
:10209000F92000F038F80446F82000F034F805463E
:1020A000F72000F030F80646300340EA051040EA19
:1020B0002419484603F06CF90746884638464146DD
:1020C000BDE8F0872DE9F047FC2000F01CF804463D
:1020D000FB2000F018F80546FA2000F014F8064638
:1020E000300340EA051040EA2419484603F09CFA00
:1020F0000746884638464146BDE8F08710B5D020EF
:1021000000F001F810BD70B5044602F007FAEC20AB
:1021100002F0EFF902F0C4F9204602F0EAF902F009
:10212000BFF902F0FBF9ED2002F0E3F902F0B8F993
:1021300002F0C5F9054602F0FFF9284670BD70B5FA
:10214000044620784001617840EA8100A178084384
:10215000C5B22946F52000F010F870BD70B50446F0
:1021600060784001217840EA8100A1780843C5B237
:102170002946F42000F001F870BD70B505460C4604
:1021800002F0CCF9EC2002F0B4F902F089F928460B
:1021900002F0AFF902F084F9204602F0AAF902F049
:1021A0007FF902F0C9F970BD7CB502F041F98820D1
:1021B000FFF7A9FF04468920FFF7A5FF054604EBBA
:1021C00005205C49096808808A20FFF79CFF0446C7
:1021D0008B20FFF798FF054604EB052000B2554918
:1021E000096848808C20FFF78EFF04468D20FFF79A
:1021F0008AFF054604EB052000B24E490968888035
:102200008E20FFF780FF04468F20FFF77CFF0546F6
:1022100004EB052047490968C8809020FFF773FF49
:1022200004469120FFF76FFF054604EB052000B23E
:102230004049096808819220FFF765FF0446932012
:10224000FFF761FF054604EB052000B23949096834
:1022500048819420FFF757FF04469520FFF753FF6E
:10226000054604EB052000B23249096888819620B2
:10227000FFF749FF04469720FFF745FF054604EBAB
:10228000052000B22B490968C8819820FFF73BFF61
:1022900004469920FFF737FF054604EB052000B2FE
:1022A0002449096808829A20FFF72DFF04469B20E5
:1022B000FFF729FF054604EB052000B21D49096818
:1022C00048829C20FFF71FFF04469D20FFF71BFF5D
:1022D000054604EB052000B21649096888829E2055
:1022E000FFF711FF04469F20FFF70DFF054604EBA3
:1022F000052000B20F490968C882B621E020FFF727
:102300003CFF03208DF8040001208DF80500032018
:102310008DF8060001A8FFF721FF00208DF80000CE
:1023200004208DF8010000208DF802006846FFF7B8
:1023300006FF7CBDE000002000BFFEE700B585B0D1
:1023400000BF0B48806940F00400094988610846D5
:10235000806900F00400009000BF00BF01200190E0
:102360000290049001A9034800F09CFC05B000BD58
:1023700000100240000801401FB50120009000201D
:1023800001906946014800F08DFC1FBD0008014026
:102390001FB501200090019003906946014800F0AC
:1023A00081FC1FBD000801400848006800F00200E1
:1023B00050B101200649087000BF0448406840F051
:1023C00002000249486000BF704700000000024060
:1023D000DC00002030B590F840500124AC40C56BC3
:1023E0006C60046863604468102C04D10468A260C7
:1023F0000468E16003E00468A1600468E26030BD45
:1024000070470000F8B5044600260020009000BF89
:1024100094F82400012801D10220F8BD012084F89D
:10242000240000BF2046FFF786FD0646002E62D13D
:10243000A06A20F4885040F00200A062022000F060
:1024400099FE30490968B1FBF0F04000009002E0CD
:102450000098401E009000980028F9D12046FFF710
:10246000D3FD2068806840F008002168886000F093
:10247000D1FD054611E000F0CDFD401B0A280CD926
:10248000A06A20F0020040F01000A06200BF00200F
:1024900084F8240000BF0120BFE72068806800F0B6
:1024A00008000028E7D12068806840F00400216817
:1024B000886000F0AFFD054611E000F0ABFD401B69
:1024C0000A280CD9A06A20F0020040F01000A06297
:1024D00000BF002084F8240000BF01209DE7206891
:1024E000806800F004000028E7D1A06A20F0020014
:1024F00040F00100A06200BF002084F8240000BF6B
:1025000030468AE70000002038B50246002300204C
:10251000009000BF92F82400012801D1022038BDAC
:10252000012082F8240000BF4868072812D21068F2
:10253000406B0C79641E04EB84051F24AC40A0435F
:102540000D796D1E05EB85050C68AC4020431468C1
:10255000606327E048680D2812D21068006B0C7980
:10256000E41F04EB84051F24AC40A0430D79ED1F4C
:1025700005EB85050C68AC4020431468206311E02E
:102580001068C06A0C790D3C04EB84051F24AC4034
:10259000A0430D790D3D05EB85050C68AC4020434B
:1025A0001468E06208680A2812D31068C0680C78C2
:1025B0000A3C04EB44050724AC40A0430D780A3DD7
:1025C00005EB45058C68AC4020431468E0600FE0E3
:1025D000106800690C7804EB44050724AC40A04364
:1025E0000D7805EB45058C68AC40204314682061EC
:1025F0000868102802D00868112827D1174C1068E5
:10260000A0421ED11068806800F40000F0B9106884
:10261000806840F400001468A0600868102815D194
:102620000F4800680F4CB0FBF4F000EB8000400056
:10263000009002E00098401E009000980028F9D118
:1026400004E0906A40F020009062012300BF002067
:1026500082F8240000BF184661E700000024014012
:102660000000002040420F00704770477047000094
:102670002DE9F0410446002700250026A84614B99C
:102680000120BDE8F081A06810B1207D00B100BF3D
:10269000A06A30B90020E06284F82400204600F0EF
:1026A00097F82046FFF747FC0746A06A00F01000A5
:1026B000002873D1002F7ED1A06A20F4885040F00A
:1026C0000200A0623F4AD4E90001904208D1E069CB
:1026D000B0F5402F02D14FF4002002E0E06900E0A5
:1026E000E0690143207B41EA40000643A068B0F561
:1026F000807F02D0A068012802D14FF4807000E0F2
:1027000000200543207D012811D1207B38B9A06924
:10271000401E4FF4006141EA4030054307E0A06AE3
:1027200040F02000A062E06A40F00100E062206812
:10273000406820F469402843216848602068806828
:1027400021490840304321688860A068B0F5807F47
:1027500002D0A068012802D14FF4807000E0002070
:10276000B0F5807F03D1208A401E4FEA00582068D0
:10277000C06A20F4700040EA08002168C86220683E
:10278000806812490840B04209D10020E062A06A86
:1027900020F0020040F00100A06211E00BE0A06A0E
:1027A00020F0020040F01000A062E06A40F001005A
:1027B000E062012704E0A06A40F01000A062012757
:1027C00038465EE7003C0140FDF7E1FFFE0E1FFFCB
:1027D00010B58CB004461C492068884232D11821BB
:1027E00002A8FEF79BF800BF00BF1848806940F4BC
:1027F0000070164988610846806900F400700190F5
:1028000000BF00BF00BF00BF00BF0846806940F0A6
:10281000040088610846806900F00400019000BF50
:1028200000BF00BF022002908003049002A800F0C5
:102830003BFD022008900320099008A9044800F0FD
:1028400031FA00BF0CB010BD00240140001002405E
:10285000000801402DE9F04104460D4616460027C8
:1028600057492068884203D056492068884205D1DC
:102870005348001D006800F4702000E0002000288C
:102880007ED100BF94F82400012802D10220BDE8C7
:10289000F081012084F8240000BF2046FFF7B4FB3C
:1028A0000746002F6DD1A06A40F60161884340F4CD
:1028B0008070A06243492068884209D14048001DC9
:1028C000006800F4702008B9012002E0002000E058
:1028D000012078B1A06A20F48010A06220684068CE
:1028E00000F4806000B3A06A20F4005040F48050EF
:1028F000A06219E0A06A40F48010A062304920680C
:10290000884203D02F492068884205D12C48001DF9
:10291000006800F4806000E0002028B1A06A20F484
:10292000005040F48050A062A06A00F4805020B1B2
:10293000E06A20F00600E06201E00020E06200BFF3
:10294000002084F8240000BF1F48216A88621F48C5
:10295000216AC8621E48216A08636FF0020021687C
:1029600008602068806840F4807021688860226870
:1029700002F14C0133462A46206A00F045F901E095
:102980001AE014E02068806800F46020B0F5602F41
:1029900006D12068806840F4A000216888600CE0BF
:1029A0002068806840F480102168886005E000BFDE
:1029B000002084F8240000E00127384667E7000083
:1029C0000024014000280140891F0008F91F000869
:1029D000DB1F000870B50446002594F8210002288A
:1029E00003D00420A0630125C1E02068006820F026
:1029F0000E00216808602068006820F0010021684E
:102A000008605C492068884252D95A497839206860
:102A1000884201D1012047E0564964392068884244
:102A200001D1102040E0534950392068884201D13B
:102A3000801539E04F493C392068884201D1801423
:102A400032E04C4928392068884202D14FF4803066
:102A50002AE0484914392068884202D14FF4801096
:102A600022E044492068884201D140041CE04249E8
:102A70002068884201D1012016E03F4914312068C6
:102A8000884201D110200FE03B492831206888425C
:102A900001D1801508E038493C312068884201D1D5
:102AA000801401E04FF480303349091F086051E081
:102AB000304978392068884201D1012047E02D490A
:102AC00064392068884201D1102040E029495039FA
:102AD0002068884201D1801539E026493C392068B8
:102AE000884201D1801432E0224928392068884286
:102AF00002D14FF480302AE01E4914392068884200
:102B000002D14FF4801022E01A492068884201D196
:102B100040041CE018492068884201D1012016E0D9
:102B2000154914312068884201D110200FE0124964
:102B300028312068884201D1801508E00E493C31D7
:102B40002068884201D1801401E04FF480300949A7
:102B500080394860012084F8210000BF002084F8FB
:102B6000200000BF606B10B12046616B884728468B
:102B700070BD0000800002400804024001460022AF
:102B800009B9012070471E4B086898420BD21D4BB3
:102B90000868C01A1423B0FBF3F0800008641948D9
:102BA0000838C8630AE0164B0868C01A1423B0FB43
:102BB000F3F08000086412480838C863022081F8E6
:102BC00021000868026843F6F0708243D1E90103EE
:102BD0001843CB6818430B6918434B6918438B693A
:102BE0001843CB69184302430868026000208863D9
:102BF000012081F82100002081F8200000BFC1E7FA
:102C000008040240080002402DE9F04104460D4648
:102C100016461F464FF0000800BF94F82000012818
:102C200002D10220BDE8F081012084F8200000BF1D
:102C300094F8210001282CD1022084F821000020E2
:102C4000A0632068006820F00100216808603B460E
:102C5000324629462046FFF7BDFBE06A30B12068C6
:102C6000006840F00E00216808600BE020680068F2
:102C700020F00400216808602068006840F00A0025
:102C8000216808602068006840F001002168086041
:102C900006E000BF002084F8200000BF4FF00208CB
:102CA0004046BFE72DE9F847024600239C467BE1FA
:102CB0004FF0010808FA03F4D1F8008008EA040094
:102CC000A0427DD1DFF8F4A2D1F80480A8EB0A0974
:102CD000D0453AD014DCB8F1030F50D009DCB8F17C
:102CE000000F31D0B8F1010F1CD0B8F1020F49D15B
:102CF00020E0B8F1110F18D0B8F1120F42D11EE048
:102D0000B9F5881F25D006DCB9F5803F20D0B9F58C
:102D1000801F37D11AE0B9F5001F18D0B9F5041F8C
:102D200030D117E0D1F80CC02DE0D1F80C8008F1BB
:102D3000040C28E0D1F80C8008F1080C23E0D1F84D
:102D40000C8008F10C0C1EE000BF00BF00BF00BFEC
:102D500000BF00BFD1F80880B8F1000F02D14FF0DA
:102D6000040C0BE0D1F80880B8F1010F03D14FF04B
:102D7000080C146102E04FF0080C546103E04FF0BE
:102D8000000C00E000BF00BFFF2801D8904601E022
:102D900002F104084646FF2802D84FEA830803E000
:102DA000A3F108084FEA88084746D6F800804FF09C
:102DB0000F0909FA07F928EA09080CFA07F900E0EF
:102DC0007AE048EA0908C6F80080D1F8048008F0E3
:102DD0008058B8F1805F6FD100BFDFF8E481D8F888
:102DE000188048F00108DFF8D891C9F81880C84663
:102DF000D8F8188008F00108CDF8008000BF00BFA7
:102E00004FEAB9384FEA930958F829504FEA8378C6
:102E10004FEA18794FF00F0808FA09F825EA080573
:102E2000DFF8A081424502D14FF0000824E0DFF82E
:102E30009881424502D14FF001081DE0DFF88C81F6
:102E4000424502D14FF0020816E0DFF88481424586
:102E500002D14FF003080FE0DFF87881424502D13C
:102E60004FF0040808E0DFF87081424502D14FF0CE
:102E7000050801E04FF006084FEA83794FEA197917
:102E800008FA09F848EA0505DFF850814FEA930986
:102E900048F82950D1F8048008F48038B8F5803F0C
:102EA0000BD1DFF83C81D8F8008048EA0008DFF851
:102EB0003091C9F800800AE075E0DFF82481D8F885
:102EC000008028EA0008DFF81891C9F80080D1F8DE
:102ED000048008F40038B8F5003F0ED1DFF8008117
:102EE00008F10408D8F8008048EA0008DFF8F090FC
:102EF00009F10409C9F800800DE0DFF8E48008F169
:102F00000408D8F8008028EA0008DFF8D49009F116
:102F10000409C9F80080D1F8048008F48018B8F5D5
:102F2000801F0ED1DFF8B88008F10808D8F80080BB
:102F300048EA0008DFF8A89009F10809C9F80080FC
:102F40000DE0DFF89C8008F10808D8F8008028EA36
:102F50000008DFF88C9009F10809C9F80080D1F861
:102F6000048008F40018B8F5001F0ED1DFF8708057
:102F700008F10C08D8F8008048EA0008DFF86090F3
:102F800009F10C09C9F800800DE0DFF8548008F160
:102F90000C08D8F8008028EA0008DFF8449009F10E
:102FA0000C09C9F800805B1CD1F8008028FA03F8EE
:102FB000B8F1000F7FF47CAEBDE8F8870000111077
:102FC0000010024000080140000C014000100140C8
:102FD0000014014000180140001C0140080001409D
:102FE00000040140024693680B400BB1012000E051
:102FF0000020704710B5C26821EA020302EA01040A
:1030000043EA0443036110BD0AB1016101E00B040E
:1030100003617047014800687047000050000020BD
:10302000034800680349097808440149086070476B
:10303000500000205800002010B50848006840F0FB
:10304000100006490860032000F080F80F2000F00F
:1030500007F800F02BF8002010BD0000002002400F
:1030600070B504460E4800784FF47A71B1FBF0F069
:103070000C490968B1FBF0F5284600F029FD08B1BC
:10308000012070BD102C07D200222146501E00F0F6
:103090001EF80548046001E00120F2E70020F0E797
:1030A0005800002000000020540000207047014616
:1030B0000846002809DB00F01F0301229A4043095B
:1030C0009B0003F1E023C3F8002100BF70472DE906
:1030D000F05F80460D461646002702F047F8074687
:1030E00039462A46334601F00700C0F1070ABAF113
:1030F000040F02D94FF0040A01E0C0F1070AD146DB
:1031000000F1040ABAF1070F02D24FF0000A01E001
:10311000A0F1030AD4464FF0010A0AFA09FAAAF10B
:10312000010A0AEA020A0AFA0CFA4FF0010B0BFA3A
:103130000CFBABF1010B0BEA030B4AEA0B04214633
:10314000404602F01BF8BDE8F09F000000BF00F011
:103150000702064B19684FF6FF031940044B0B4357
:1031600043EA0221014B196000BF70470CED00E0FB
:103170000000FA052DE9F04385B0064642A30FCBC7
:1031800001AC0FC444A0006800904FF00008002577
:1031900000270024A146042E36D004DC012E3BD0AB
:1031A000022E6BD15FE0082E32D0102E66D13B4844
:1031B0004468006800F0807000B301A8C4F3834144
:1031C000475C04F4803070B134484068C0F340403C
:1031D0001DF8008004F4803040B13148B0FBF8F0B5
:1031E00000FB07F502E02F4807FB00F52B4840687D
:1031F00000F48000B0F5800F01D1A94603E068001B
:103200000321B0FBF1F93AE000F0D2F9814636E053
:1032100000F0CEF9814632E02048046A04F44070A0
:10322000B0F5807F05D104F0020010B14FF40049E1
:1032300018E004F44070B0F5007F07D11748406AE9
:1032400000F0020010B149F640490BE004F4407070
:10325000B0F5407F06D11148006800F4003008B195
:103260004FF224490BE000F093F90C494968C1F38F
:103270008131491C4900B0FBF1F900E000BF00BFFB
:10328000484605B0BDE8F0830203040506070809B7
:103290000A0B0C0D0E0F101001020000001002406E
:1032A00000127A0000093D00F8B50446002600250A
:1032B000207800F0010000286BD000274348C06947
:1032C00000F0805070B900BF4048C06940F08050A5
:1032D0003E49C8610846C06900F08050009000BFB8
:1032E00000BF01273A48006800F48070B0B9384840
:1032F000006840F4807036490860FFF78BFE064690
:1033000006E0FFF787FE801B642801D90320F8BD83
:103310002F48006800F480700028F2D02B48006A23
:1033200000F440752DB3A08800F44070A84220D06E
:103330002648006A20F440750120264908600020D4
:1033400008602248056205F0010090B1FFF762FEB7
:10335000064608E0FFF75EFE801B41F28831884296
:1033600001D90320D3E71948006A00F002000028C1
:10337000F0D01648006A20F4407061680843134991
:103380000862012F04D10846C06920F08050C8614E
:1033900000BF207800F00200022807D10B484068E7
:1033A00020F44040A168084308494860207800F0B4
:1033B0001000102807D10548406820F4800061699A
:1033C0000843024948600020A1E7000000100240C5
:1033D000007000404004424270B504460D460CB9EE
:1033E000012070BD5A48006800F00700A8420ED2C4
:1033F0005748006820F007002843554908600846F0
:10340000006800F00700A84201D00120E9E7207819
:1034100000F0020002281DD1207800F004000428EA
:1034200005D14C48406840F4E0604A494860207843
:1034300000F00800082805D14648406840F4605074
:10344000444948604348406820F0F000A1680843C0
:1034500040494860207800F0010078B36068012896
:1034600006D13C48006800F4003090B90120B8E76C
:103470006068022806D13748006800F0007040B943
:103480000120AEE73348006800F0020008B90120CF
:10349000A7E73048406820F00300616808432D49E1
:1034A0004860FFF7B7FD064609E0FFF7B3FD801B54
:1034B00041F28831884202D9032092E707E025488B
:1034C000406800F00C006168B0EB810FEDD120483E
:1034D000006800F00700A8420ED91D48006820F0DF
:1034E000070028431A4908600846006800F00700F2
:1034F000A84201D0012074E7207800F004000428DD
:1035000007D11448406820F4E060E168084311499D
:103510004860207800F00800082808D10D4840686D
:1035200020F46050216940EAC1000A49486000F077
:103530003FF808494968C1F30311074A515CC84084
:103540000649086006480068FFF78AFD002048E742
:103550000020024000100240AEA20008000000203F
:10356000540000200148006870470000000000205F
:1035700000B5FFF7F7FF04494968C1F30221034A88
:10358000515CC84000BD000000100240BEA200080F
:1035900000B5FFF7E7FF04494968C1F3C221034AB8
:1035A000515CC84000BD000000100240BEA20008EF
:1035B000F0B585B00FF26C0C9CE8E01001A8A0E813
:1035C000E0101CA52D680095002100220023002496
:1035D0000020194D696801F00C05F5B1042D02D0E9
:1035E000082D19D101E0154819E001ADC1F383465A
:1035F000AC5D01F4803555B10F4D6D68C5F34045A4
:103600001DF805200D4D6543B5FBF2F302E00C4DAE
:1036100004FB05F3184602E000BF084800BF00BFE6
:1036200005B0F0BD02030405060708090A0B0C0DDE
:103630000E0F1010010200000010024000127A006C
:1036400000093D00F8B504460CB90120F8BD20780A
:1036500000F00100002878D0F848406800F00C0025
:1036600004280CD0F548406800F00C00082811D15F
:10367000F248406800F48030B0F5803F0AD1EF484E
:10368000006800F4003000285FD0606800285CD13A
:103690000120DBE700BF6068B0F5803F06D1E74856
:1036A000006840F48030E549086028E0606858B957
:1036B000E248006820F48030E0490860084600686D
:1036C00020F4802008601AE06068B0F5A02F0BD1CC
:1036D000DA48006840F48020D8490860084600684D
:1036E00040F4803008600AE0D448006820F480305C
:1036F000D24908600846006820F48020086000BFB6
:10370000606888B1FFF786FC054606E0FFF782FC9B
:10371000401B642801D9032098E7C848006800F4DA
:1037200000300028F2D010E0FFF774FC054606E0F8
:10373000FFF770FC401B642801D9032086E7BF48CF
:10374000006800F400300028F2D1207800F0020078
:10375000022857D1B948406800F00C0050B1B74872
:10376000406800F00C00082818D1B448406800F404
:10377000803098B9B148006800F0020020B120699B
:10378000012801D0012061E7AC48006820F0F80072
:10379000616940EAC100A949086033E02069E8B1E5
:1037A0000120A7490860FFF735FC054606E0FFF752
:1037B00031FC401B022801D9032047E79F480068DD
:1037C00000F002000028F2D09C48006820F0F800C9
:1037D000616940EAC1009949086013E000209849F6
:1037E0000860FFF717FC054606E0FFF713FC401BD7
:1037F000022801D9032029E79048006800F0020060
:103800000028F2D1207800F0080008282DD1A06906
:10381000B8B101208B490860FFF7FCFB054606E0C4
:10382000FFF7F8FB401B022801D903200EE783486D
:10383000406A00F002000028F2D0012001F0ECF90B
:1038400013E000207F490860FFF7E4FB054606E02F
:10385000FFF7E0FB401B022801D90320F6E677487A
:10386000406A00F002000028F2D1207800F0040045
:10387000042873D100277148C06900F0805070B9E6
:1038800000BF6E48C06940F080506C49C86108466E
:10389000C06900F08050009000BF00BF01276A4857
:1038A000006800F48070B0B96748006840F4807028
:1038B00065490860FFF7AEFB054606E0FFF7AAFB87
:1038C000401B642801D90320C0E65F48006800F46B
:1038D00080700028F2D000BFE068012806D1574868
:1038E000006A40F001005549086227E0E06858B9D5
:1038F0005248006A20F00100504908620846006AF8
:1039000020F00400086219E0E06805280BD14B485C
:10391000006A40F00400494908620846006A40F025
:10392000010008620AE04548006A20F001004349AE
:1039300008620846006A20F00400086200BFE068E0
:10394000A0B1FFF767FB054609E0FFF763FB401BEB
:1039500041F28831884202D9032077E622E03748D5
:10396000006A00F002000028EFD012E0FFF752FBDF
:10397000054608E0FFF74EFB401B41F288318842C4
:1039800001D9032062E62D48006A00F002000028F9
:10399000F0D1012F05D12948C06920F08050274976
:1039A000C86100BFE069C8B32448406800F00C005B
:1039B000082860D0E069022848D100202049086624
:1039C000FFF728FB054606E0FFF724FB401B022813
:1039D00001D903203AE61948006800F00070002879
:1039E000F2D1206AB0F5803F07D11448406820F436
:1039F0000030A168084311494860D4E90801084330
:103A00000E49496821F4741108430C4948600120AB
:103A10000B490866FFF7FEFA054607E03DE0FFF7B1
:103A2000F9FA401B022801D903200FE60348006879
:103A300000F000700028F2D02FE0000000100240DB
:103A400000004242800442420070004000201449BD
:103A50000866FFF7DFFA054606E0FFF7DBFA401BD2
:103A6000022801D90320F1E50E48006800F000703B
:103A70000028F2D111E0E069012800D1E6E509480B
:103A8000466806F48031206A814204D106F4701140
:103A9000606A814201D00120D8E50020D6E500000F
:103AA0000000424200100240042808D14FF0E021FB
:103AB000096941F004014FF0E022116107E04FF085
:103AC000E021096921F004014FF0E0221161704703
:103AD00070B504462546681EB0F1807F01D30120F1
:103AE0000FE0681E4FF0E02148610F214FF0FF30DA
:103AF00001F044FB00204FF0E021886107200861BD
:103B0000002070BD70477047704710B504462068AC
:103B10000069C0F34000D8B12068C068C0F340001D
:103B2000B0B16FF0020021680861012020772068A1
:103B3000806900F0030018B12046FFF7E5FF05E0BB
:103B4000204600F0ADF8204600F0ABF800202077CA
:103B500020680069C0F38000D8B12068C068C0F355
:103B60008000B0B16FF00400216808610220207766
:103B70002068806900F4407018B12046FFF7C4FF48
:103B800005E0204600F08CF8204600F08AF800207E
:103B9000207720680069C0F3C000D8B12068C068F1
:103BA000C0F3C000B0B16FF00800216808610420C4
:103BB00020772068C06900F0030018B12046FFF7A5
:103BC000A3FF05E0204600F06BF8204600F069F8FE
:103BD0000020207720680069C0F30010D8B1206869
:103BE000C068C0F30010B0B16FF010002168086128
:103BF000082020772068C06900F4407018B1204682
:103C0000FFF782FF05E0204600F04AF8204600F06A
:103C100048F8002020772068006900F0010058B1C2
:103C20002068C06800F0010030B16FF00100216829
:103C30000861204600F036F820680069C0F3C01023
:103C400058B12068C068C0F3C01030B16FF0800078
:103C5000216808612046FFF755FF20680069C0F31E
:103C6000801058B12068C068C0F3801030B16FF088
:103C7000400021680861204600F024F820680069AF
:103C8000C0F3401058B12068C068C0F3401030B194
:103C90006FF02000216808612046FFF734FF10BD57
:103CA0007047704710B504460448844205D100BFF0
:103CB00020210348FFF79EF900BF10BDC804002073
:103CC00000180140704770472DE9F047044620680E
:103CD00005682068C668206847694FF00008C1463B
:103CE00005F00F08B8F1000F0AD105F0200038B137
:103CF00006F0200020B1204601F0D6F8BDE8F0879C
:103D0000B8F1000F71D007F0010018B906F49070F7
:103D100000286AD005F0010030B106F4807018B1B7
:103D2000E06B40F00100E06305F0040030B107F003
:103D3000010018B1E06B40F00200E06305F0020002
:103D400030B107F0010018B1E06B40F00400E0630F
:103D500005F0080048B106F0200010B907F0010096
:103D600018B1E06B40F00800E063E06B68B305F069
:103D7000200028B106F0200010B1204601F094F890
:103D800020684069C0F38019E06B00F0080010B9AA
:103D9000B9F1000F22D0204601F066F82068406992
:103DA00000F04000B0B12068406920F04000216878
:103DB0004861606B50B11848616B4863606BFEF7F7
:103DC00009FE10B1606B416B88470CE02046FFF79D
:103DD0007AFF08E02046FFF776FF04E02046FFF771
:103DE00072FF0020E06389E7FFE705F0800030B153
:103DF00006F0800018B1204601F024F97EE705F0B6
:103E0000400030B106F0400018B1204601F03CF807
:103E100074E700BF72E70000554E000810B5044675
:103E20000CB9012010BDA06900B100E000BF94F8FA
:103E3000390028B9002084F83800204600F028F81E
:103E4000242084F839002068C06820F400502168DC
:103E5000C860204601F078F82068006920F490409E
:103E6000216808612068406920F02A0021684861C3
:103E70002068C06840F400502168C8600020E063FA
:103E8000202084F8390084F83A000020CAE70000B6
:103E900010B586B004467749206888424AD100BFF1
:103EA00000BF7548806940F0040073498861084686
:103EB000806900F00400019000BF00BF00BF00BF98
:103EC00000BF0846806940F00400886108468069A8
:103ED00000F00400019000BF00BF00BF00BF00BFA2
:103EE0000846806940F4804088610846806900F493
:103EF0008040019000BF00BF00BF48150290022023
:103F00000390012004900320059002A95B48FEF76E
:103F1000C9FE4FF4806002900020039002A9574828
:103F2000FEF7C0FE2520FFF7C2F803221146252028
:103F3000FFF7CDF852492068884249D100BF00BF41
:103F40004D48806940F004004B498861084680690B
:103F500000F00400019000BF00BF00BF00BF00BF21
:103F60000846806940F0040088610846806900F0D6
:103F70000400019000BF00BF00BF00BF00BF0846A3
:103F8000C06940F40030C8610846C06900F40030E0
:103F9000019000BF00BF00BF0420029002200390E8
:103FA000012004900320059002A93448FEF77AFE10
:103FB000082002900020039002A93048FEF772FE0C
:103FC0002620FFF774F8032202212620FFF77FF84E
:103FD0002C49206888424AD100BF00BF264880692A
:103FE00040F00800244988610846806900F0080014
:103FF000019000BF00BF00BF00BF00BF084680693E
:1040000040F0080088610846806900F008000190CF
:1040100000BF00BF00BF00BF00BF0846C06940F43A
:104020008020C8610846C06900F48020019000BF6C
:1040300000BF00BF081502900220039001200490E9
:104040000320059002A91048FEF72CFE4FF40060F3
:1040500002900020039002A90B48FEF723FE2720C0
:10406000FFF725F8022211462720FFF730F806B0A7
:1040700010BD00000038014000100240000801405F
:104080000044004000480040000C014010B50346C9
:1040900093F83A0020282FD101B10AB9012010BDB0
:1040A00000BF93F83800012801D10220F7E7012072
:1040B00083F8380000BF99629A85DA850020D863BA
:1040C000222083F83A0000BF002083F8380000BFA8
:1040D0001868C06840F480701C68E0601868406927
:1040E00040F001001C6860611868C06840F0200062
:1040F0001C68E0600020D2E70220D0E710B504463B
:104100006049206888423BD15F48008800F4004045
:1041100088BB5D48008800F4804070B15B4800783F
:104120000A2803D000205849088024E05648008817
:1041300040F40040544908801DE0544800780D28A0
:1041400006D15148008840F480404F49088012E071
:104150004E4800784C490988C1F30D014C4A50542F
:1041600049480088401C4849088008460088C728FC
:1041700001DD00200880012244494648FFF786FF00
:104180004549206888423BD14448008800F40040FB
:1041900088BB4248008800F4804070B140480078F5
:1041A0000A2803D000203D49088024E03B480088CD
:1041B00040F40040394908801DE0394800780D2856
:1041C00006D13648008840F480403449088012E027
:1041D0003348007831490988C1F30D01314A505400
:1041E0002E480088401C2D49088008460088C728B2
:1041F00001DD00200880012229492B48FFF746FFF6
:104200002A49206888423BD12948008800F40040B0
:1042100088BB2748008800F4804070B125480078AA
:104220000A2803D000202249088024E02048008882
:1042300040F400401E4908801DE01E4800780D280B
:1042400006D11B48008840F480401949088012E0DC
:104250001848007816490988C1F30D01164A5054D0
:1042600013480088401C1249088008460088C72867
:1042700001DD0020088001220E491048FFF706FFEB
:1042800010BD00000038014044000020460000201E
:10429000B0010020780200200044004048000020C7
:1042A0004A000020B802002080030020004800409F
:1042B0004C0000204E000020C00300208804002095
:1042C0002DE9F84F04460E46174699464FF0000A6E
:1042D00094F8390020285AD106B117B90120BDE859
:1042E000F88F00BF94F83800012801D10220F6E7CA
:1042F000012084F8380000BF0020E063212084F80A
:104300003900FEF787FE8246A784E784A068B0F5EF
:10431000805F04D1206910B90025B04602E035461F
:104320004FF0000800BF002084F8380000BF1BE0F9
:104330005346002280212046CDF8009000F0B2FEC6
:1043400008B10320CBE745B9B8F80000C0F3080076
:104350002168486008F1020803E028782168486075
:104360006D1CE08C401EE084E08C0028E0D15346B8
:10437000002240212046CDF8009000F093FE08B1C5
:104380000320ACE7202084F839000020A7E70220B2
:10439000A5E7704770B504462046FCF731FA85B2B0
:1043A0004FF47A732A4621460548FFF789FF00BF7C
:1043B000034800680068C0F380100028F8D070BD82
:1043C0008003002010B51348008800F4004080B13D
:1043D00000BF114800680068C0F380100028F8D0C2
:1043E00006230E4A02210F2000F09AFB0020094903
:1043F00008800B48008800F4004050B100BF094815
:1044000000680068C0F380100028F8D0002004493C
:10441000088010BD4800002080030020B802002062
:10442000440000207802002000BFFEE700BFFEE746
:1044300000B585B00020019002900390049000BF69
:104440001048806940F008000E498861084680697C
:1044500000F00800009000BF00BF4FF440500190F2
:1044600011200290002003900220049001A9064828
:10447000FEF718FC01224FF440510348FEF7C4FD3B
:1044800005B000BD00100240000C014010B54FF413
:1044900080510248FEF7A6FD10BD0000000C01404F
:1044A00010B5012000F066F8012000F051F8FFF788
:1044B000EDFF0446002000F04BF8204610BD70B51B
:1044C0000025012000F056F800240EE0012000F045
:1044D0003FF8FFF7DBFF012802D180202041054390
:1044E000002000F035F8601CC4B2082CEEDB284632
:1044F00070BD70B5054600240DE08021214101EA20
:10450000050000F037F8012000F022F8002000F04C
:104510001FF8601CC4B2082CEFDB70BD10B5012081
:1045200000F028F8012000F013F8002000F022F835
:10453000002000F00DF810BD10B5002000F01AF8B2
:10454000012000F005F8012000F014F810BD000073
:1045500010B504460CB1012000E0002002464FF4E3
:1045600000510348FEF750FD0A2001F033F910BD59
:10457000000C014010B504460CB1012000E0002001
:1045800002464FF480510348FEF73EFD0A2001F039
:1045900021F910BD000C01407047000000200CE024
:1045A000002106E00022064B03EBC0135A544A1CBC
:1045B000D1B28029F6DB421CD0B20828F0DB70476C
:1045C000183100202DE9F04304460D4616461F46DB
:1045D0007F2C01DDBDE8F0833F2D00DDFAE7A11956
:1045E000802902DDC4F18001CEB2E919402902DD43
:1045F000C5F14001CFB2284630E0234629E04FEA1A
:10460000E07C00EB5C7C4FEAEC0CDFF85C8008EBB4
:10461000CC1C1CF803C002464FEAE07800EB587847
:104620004FEAE808A0EBC8094FF0010808FA09F8BA
:104630002CEA080C01464FEAE07800EB58784FEA84
:10464000E808DFF8249009EBC81808F803C0591CE3
:10465000CBB2A1199942D2DC411CC8B2E9198142FE
:10466000CBDC00BFB6E700001831002030B585B0C4
:10467000002406E0002500E06D1CB5F57A7FFBD331
:10468000641CB4F57A7FF5D300BF1348806940F00D
:104690000800114988610846806900F00800009010
:1046A00000BF00BF11200290012004900002019081
:1046B00001A90A48FEF7F6FA4FF40070019001A92B
:1046C0000648FEF7EFFA012000F056FA012000F04C
:1046D00067FA05B030BD000000100240000C014038
:1046E00070B50546002411E080212141294009B11F
:1046F000012100E00021084600F052FA012000F0FC
:104700003BFA002000F038FA601CC4B2082CEBDB46
:10471000012000F031FA002000F02EFA70BD10B533
:10472000012000F03DFA012000F026FA002000F000
:1047300037FA002000F020FA10BD10B5002000F07C
:104740002FFA012000F018FA012000F029FA10BD1C
:1047500010B5FFF78BFFAE2000F036FAD52000F041
:1047600033FA802000F030FAA82000F02DFA3F2024
:1047700000F02AFAD32000F027FA002000F024FAF3
:10478000402000F021FAA12000F01EFAC82000F01D
:104790001BFADA2000F018FA122000F015FA812036
:1047A00000F012FACF2000F00FFAD92000F00CFA36
:1047B000F12000F009FADB2000F006FA302000F0CA
:1047C00003FAA42000F000FAA62000F0FDF98D20E5
:1047D00000F0FAF9142000F0F7F9AF2000F0F4F936
:1047E000FFF7DCFE00F0B4F910BD10B50246012061
:1047F00000E050430B1EA1F10101FAD110BD70B5CC
:1048000005460C4645F0B00000F0DEF9102141EA03
:10481000141000F0D9F904F00F0000F0D5F970BDC4
:10482000F8B506460F4614461D46082D0CD1A4F1D6
:1048300020000E4901EB0010102308223946009099
:10484000304600F0B1F80FE0062D0DD1A4F12000A4
:1048500000EB4000064901EB4000082306223946E0
:104860000090304600F0A0F8F8BD0000C6A2000895
:10487000B6A800082DE9FF5F86B0074614461D461E
:10488000DDF85080169E002213462046294605F08A
:1048900053F806D833462B2238460799FFF7C0FF56
:1048A00007E033462D2238460799FFF7B9FF85F018
:1048B00000452046294604F0ADFE8246504604F0ED
:1048C000EDFE22462B46CDE9040105F0C5F804466D
:1048D0000D460A201599FFF788FF8146484604F0E7
:1048E000DDFE22462B46CDE9000104F027FFCDE98D
:1048F000020101F009FFCDE9040104F08BFE8346BB
:10490000BBFBF9F08244B919C8B24346524600963F
:10491000079900F0DFF808F1010101FB0671C8B248
:1049200033462E220799FFF77BFF08F1020101FBB6
:104930000671C8B200965A46159B079900F0CAF84E
:104940000AB0BDE8F09F2DE9F04706468A46914639
:104950001F46DDF82080002421E0381B411E102076
:10496000FFF743FFB9FBF0F000F00F050A2D0ADA5C
:1049700005F13001CAB204FB0861C8B24346514692
:10498000FFF74EFF09E005F13701CAB204FB0861E9
:10499000C8B243465146FFF743FF601CC4B2BC4255
:1049A000DBDBBDE8F08700002DE9F04707460C4649
:1049B00090469946DDF820A07F2F01DDBDE8F08705
:1049C0003F2C00DDFAE74B46424621463846FFF7CA
:1049D000F9FD002570E0002669E0B8197F2800DDA8
:1049E00067E0E11704EB517105EBE101072900DDF8
:1049F000E4E72046E21704EB527205EBE202344B87
:104A000003EBC212BB19D25C2146E31704EB5373CC
:104A1000DB10A4EBC30305FB086C1AF80CC00CFAFE
:104A200003FC42EA0C02E31704EB537305EBE303C8
:104A3000DFF89CC00CEBC31307EB060C03F80C204B
:104A4000E11704EB517105EBE101491C072900DD79
:104A50002BE02046E21704EB527205EBE202521CF7
:104A60001B4B03EBC212BB19D25C2146E31704EBCC
:104A70005373DB10A4EBC303C3F1080305FB086CFD
:104A80001AF80CC04CFA03FC42EA0C02E31704EBE0
:104A9000537305EBE3035B1CDFF834C00CEBC3136B
:104AA00007EB060C03F80C2000BF701CC6B246458D
:104AB00093DB00BF681CC5B2A9F10100C11700EB70
:104AC0005171012202EBE101A94284DC00BF75E7CC
:104AD000183100202DE9F0470646894617461D4645
:104AE000DDF82080002417E0281B411E0A20FFF774
:104AF0007CFEB7FBF0F00A21B0FBF1F201FB1200E3
:104B000000F1300A04FB0861C8B2434652464946E8
:104B1000FFF786FE601CC4B2AC42E5DBBDE8F0875F
:104B20002DE9F0410646884615461F46002409E057
:104B30002A5D04FB0761C8B23B464146FFF770FEA1
:104B4000601CC4B2285D0028F2D1BDE8F0810000ED
:104B500010B500240BE000212046FFF750FE054968
:104B600001EBC410802100F03FF8601CC4B2082C97
:104B7000F1DB10BD1831002010B50446012C05D121
:104B8000012201020548FEF73FFA05E000224FF43A
:104B900080710248FEF738FA10BD0000000C014099
:104BA00010B50446012C05D1012241020548FEF74B
:104BB0002BFA05E000224FF400710248FEF724FAB8
:104BC00010BD0000000C014010B50446FFF7A7FD22
:104BD0007820FFF785FD0020FFF782FD2046FFF7D4
:104BE0007FFDFFF7AAFD10BD70B505460E46FFF725
:104BF00096FD7820FFF774FD4020FFF771FD00243B
:104C000004E0285DFFF76CFD601CC4B2B442F8DB21
:104C1000FFF793FD70BD000008B508490968C90891
:104C20004FF47A72B1FBF2F14143009100BF00BF33
:104C300000994A1E00920029F9D108BD0000002009
:104C400070B50025002424E000BF01211348FEF7C1
:104C5000C9F90028F9D0282000F0BCFD01210F4837
:104C6000FEF7C0F901280DD100BF01210B48FEF766
:104C7000B9F90128F9D0C4F1070101208840C0B278
:104C8000054304E0C4F10701012088408543601C0E
:104C9000C4B2082CD8DB284670BD000000080140D3
:104CA00010B50446FDF774FB002201212448FEF7ED
:104CB000ABF9122000F082FD012211462048FEF7D8
:104CC000A3F91E2000F086FDFDF756FB01211C48CC
:104CD000FEF788F978BB00BF01211948FEF782F979
:104CE0000028F9D000BF01211548FEF77BF9012803
:104CF000F9D0FFF7A5FF2070FFF7A2FF6070FFF764
:104D00009FFFA070FFF79CFFE070FFF799FF2071F5
:104D1000FDF73EFB012211460948FEF775F92078A0
:104D200061780844A1780844E178084421798842F0
:104D300002D1002010BD01E00120FBE70120F9E7CE
:104D4000000801402DE9F04F85B004460D4620468D
:104D5000294604F02FFC8346584604F088FC06469A
:104D600022462B4604F078FE804604F0A9F9049010
:104D70002849049805F01EF9804605F0B3F8074667
:104D800005F0ECF80646234904F0EAFF04902149B7
:104D9000049805F00FF9064605F0A4F882461EA116
:104DA00003C9CDE902010BF0FF008DF809004FEABD
:104DB0001B608DF80A004FEA1B408DF80B004FEA8C
:104DC0001B208DF80C004FF0FF33052202A9144878
:104DD000FFF776FA13A103C9CDE9000150464FEA67
:104DE000EA710AEB11610912AAEB0121C9B28DF82F
:104DF00001104FEAEA710AEB1161090A8DF80210FD
:104E00004FF0FF33052269460548FFF759FA05B010
:104E1000BDE8F08F00007A440300000000000000AD
:104E200088040020050000000000000010B5FEF717
:104E3000F7F803F0D1FD012801D003F06DF910BDA2
:104E40007047000010B50248FEF75FFE10BD00007D
:104E5000C804002070B505466C6A0020E085E08437
:104E60002046FEF730FF70BD0168C96821F49071DB
:104E70000268D1600168496921F00101026851614D
:104E8000202180F83A10704710B504462068C068A9
:104E900020F040002168C860202084F839002046B6
:104EA000FFF777FA002010BD70B5044694F83A0079
:104EB000222847D1A068B0F5805F0CD1206950B995
:104EC0000025A66A20684068C0F308003080A06A08
:104ED000801CA06215E0A56A0026A068B0F5805F7E
:104EE00003D0A06828B9206918B9206840682870E4
:104EF00004E02068406800F07F002870A06A401C31
:104F0000A062E08D401E80B2E085C8B92068C0680C
:104F100020F020002168C8602068C06820F48070FC
:104F20002168C8602068406920F00100216848615C
:104F3000202084F83A002046FFF7E0F8002070BDFA
:104F40000020FCE70220FAE770B5044621680969F1
:104F500021F44051E2681143226811612269A1687D
:104F60001143626941EA02052168C96841F20C6295
:104F7000914329432268D1602168496921F4407135
:104F8000A2691143226851612D4A2168914202D1E0
:104F9000FEF7FEFA01E0FEF7EBFA00EBC00101EBD1
:104FA000001162689200B1FBF2F100EBC00202EB6B
:104FB000001263689B00B2FBF3F26423B2FBF3F2CE
:104FC00002EBC20303EB0212A1EB8201322202EBDD
:104FD00001116422B1FBF2F101F0F00100EBC0021B
:104FE00002EB001263689B00B2FBF3F26423B2FB96
:104FF000F3F201EB021200EBC00101EB0011636858
:105000009B00B1FBF3F100EBC00303EB00136668F8
:10501000B600B3FBF6F36426B3FBF6F303EBC3066B
:1050200006EB0313A1EB8301322303EB011164238D
:10503000B1FBF3F101F00F0111442268916070BDE2
:1050400000380140014691F83900212828D18868AC
:10505000B0F5805F0BD1086948B90A6A1088C0F3BF
:1050600008000B685860086A801C086205E00B6A3B
:10507000581C086218780B685860C88C401E80B2B3
:10508000C88458B90868C06820F080000B68D860F0
:105090000868C06840F040000B68D8600020704786
:1050A0000220FCE72DE9F04104460D4617469846DC
:1050B000069E21E0701CF8B12EB1FDF7ABFFA0EB0E
:1050C0000800B04218D92068C06820F4D070216868
:1050D000C8602068406920F00100216848612020F4
:1050E00084F8390084F83A0000BF002084F83800C2
:1050F00000BF0320BDE8F081206800682840A84276
:1051000001D1012000E00020B842D3D00020F1E717
:1051100010B50248FEF7D8FD10BD0000780200204F
:1051200010B50248FEF7D0FD10BD0000800300203E
:1051300010B50248FEF7C8FD10BD0000880400202D
:1051400000BFFEE7490050EAC12018BF04204A0D05
:1051500018BF40F0010040F2FF72B2EB515F08BF90
:1051600040F00200012808BF05207047024800688F
:10517000C0F30220704700000CED00E010B50028DD
:1051800004DB0A07130E054A135406E00A07140E3F
:10519000034A00F00F031B1FD45410BD00E400E0CD
:1051A00018ED00E030380A2801D2012070470020B5
:1051B000704700BF704700BF704700001249096880
:1051C00021F00101104A11601049896821F00101A4
:1051D0000E4A916000BF0D49896801F00101002964
:1051E000F9D10A49C860896841F00101074A916014
:1051F0000549096841F00101034A11601146096837
:1052000041F4800111607047082401400000024011
:1052100001B58EB0182104A8FBF780FB0020019097
:105220000290039000BF00BF4548806940F40070C1
:10523000434988610846806900F40070009000BF0F
:1052400000BF00BF00BF00BF0846806940F00400F7
:1052500088610846806900F00400009000BF00BF2C
:1052600000BF00BF0846406940F0010048610846A1
:10527000406900F00100009000BF00BF02200490D0
:105280008003069004A8FEF70FF802200A9003207E
:105290000B900AA92B48FDF705FD2B482B49086008
:1052A000002048600021294881608021C1604900B8
:1052B000016189004161002181614FF48051C16128
:1052C000FDF75CFC00BF21482149086208461F49E0
:1052D000486200BF1F481E49086000204860002146
:1052E0001B48816001210173016100210175816109
:1052F0004FF46021C161FDF7BBF91548FDF782F855
:105300000120019002900720039001A91048FDF7A9
:10531000FBF8032211460B20FDF7D9FE0B20FDF709
:10532000C6FE00230B494C3108480E9AFDF76CFC71
:1053300000220EA90648FDF78DFA0FB000BD00004F
:105340000010024000080140080002408C3000209C
:10535000D03000200024014010B50B480B490860F4
:10536000002048600021094881600173012101612A
:105370000021017581614FF46021C161FDF778F969
:105380000248FDF73FF810BD002401405C300020CA
:105390002DE9F14F8AB09748006804F068F9824619
:1053A00000224FF0804303F071FF0022924BCDE9C1
:1053B000080104F05DFB04460D4690490968B1F907
:1053C000100004F054F982468B4622462B462046B4
:1053D000294604F0B3F952465B46CDE9060104F0D4
:1053E000ADF90022864BCDE9080103F04FFF80465E
:1053F000894682490968B1F90E0004F038F922465D
:105400002B46CDE9060104F099F9824600224FF0BF
:10541000804304F093F942464B46CDE9080103F07E
:1054200081FE8046894675490968B1F90C0004F08F
:105430001EF90022734BCDE9060104F07FF900222A
:10544000714BCDE908014046494603F01FFF8246F3
:10545000DDE9082303F066FE80468946674909684E
:10546000B1F9080004F003F9824622462B4604F005
:1054700065F9CDE9060161490968B1F90A0004F04E
:10548000F6F8824622462B4604F058F922462B466F
:10549000CDE9000104F052F900225C4BCDE9020194
:1054A00003F0F4FECDE90401DDE9062303F03AFE42
:1054B0000022564BCDE9080103F0E8FE04460D46F4
:1054C0004E490968C88804F0E9F800224C4BCDE940
:1054D00008012046294603F0D9FE824600224C4BA3
:1054E00003F020FECDE90601DDE9082304F026F9EA
:1054F00004460D46002213462046294604F01EF8B5
:1055000004D1002001460BB0BDE8F08F0A9804F0EA
:10551000AEF8824600223F4B04F09EFA06460F4644
:1055200000223D4B4046494603F0B0FE32463B4622
:10553000CDE9060104F090FA0022384BCDE90801CC
:1055400004F0FCF8824622462B4603F09FFE0646F6
:105550000F462A490968B1F9160004F088F8324666
:105560003B46CDE9060104F0E9F832463B46CDE979
:10557000080104F0E3F882460022294B03F086FE7E
:1055800004460D461D490968B1F9140004F06FF88E
:1055900032463B46CDE9080104F0D0F882460022AD
:1055A000174B03F073FE8046894614490968B1F928
:1055B000120004F05CF882468B4642464B46204679
:1055C000294603F0AFFD52465B46CDE9040103F0E6
:1055D000A9FD0022134BCDE9060103F057FE324628
:1055E0003B46CDE9080103F09DFD06460F463046D7
:1055F000394688E7E40000200040EF40E00000204A
:105600000000E0400000F040000010400000204199
:105610000000F03F000030410000B040006AB84098
:105620000000E041000030402DE9F14F8CB04949C5
:105630000968B1F9020004F01AF8CDE908014549FA
:105640000968088804F02AF880460022424B03F0DB
:105650001DFECDE904010C9804F009F880460022F3
:105660003E4B03F013FE8246DDE9042304F000FA0A
:10567000CDE90601DDE9082304F060F804460D4693
:1056800034490968B1F9040003F0F1FFCDE90801DC
:1056900030490968088804F001F880460022304B40
:1056A00003F0F4FD82468B460C9803F0E0FF804641
:1056B00000224FF0824303F0E9FD52465B46CDE9FC
:1056C000000104F0D5F9CDE90401224909680888F0
:1056D00003F0E4FF80460022214B03F0D7FDCDE923
:1056E00000010C9803F0C3FF804600224FF0824374
:1056F00003F0CCFD8246DDE9002304F0B9F9CDE9E1
:105700000201DDE9042304F019F8CDE90601DDE921
:10571000082304F013F806460F4632463B4620465F
:10572000294603F0FFFC804603F044FF0D49086062
:1057300032463B462046294603F0F4FC80460022D0
:10574000094B03F0A3FDCDE90A01DDE90A010DB023
:10575000BDE8F08FE0000020000090400000D04045
:105760000000C040E40000200000B44070B50446D2
:1057700000204FF0E0210861FEF796F9E11704EBF5
:105780005171C1F3CF010C4A1180E11704EB517143
:10579000CD104FF47A7045434FF0E020006940F09F
:1057A00002004FF0E021086108464561006940F0C1
:1057B0000100086170BD00003C00002030B50446C7
:1057C000002504E04FF47A7000F004F86D1CA54247
:1057D000F8D330BD70B5034600224FF0E02675695E
:1057E0000D4E368803FB06F44FF0E026B16910E059
:1057F0004FF0E026B06988420BD0884202D20E1AE0
:10580000324402E02E1A0E4432440146A24200D332
:1058100000E0EDE700BF70BD3C00002000BF054A7E
:10582000126802F04002002AF9D0C2B2014B1B1DDF
:105830001A607047003801401CB502F087FA1C4915
:10584000086000220C21012002F080FC1949086048
:1058500000220521012002F079FC1749086000228E
:105860000621012002F072FC144908601248006809
:1058700008B1012000E000201049096809B10121A8
:1058800000E0002108400B49096809B1012100E04E
:105890000021084058B10A48012100238022CDE9A7
:1058A000001008A10A4802F0F1FF02F089F91CBDBE
:1058B0003800002030000020280000202C000020AC
:1058C0000400002073746172745F7461736B000074
:1058D0006168000870B505460C460DA12846FBF727
:1058E00045F820B90AA12046FBF740F848B109A1C4
:1058F0002846FBF73BF838B906A12046FBF736F8F7
:1059000010B900F041F801E000F034F870BD00007B
:10591000310000003200000000B585B000BF134820
:10592000806940F01000114988610846806900F0E4
:105930001000009000BF00BF002001900290039073
:1059400004904FF400500190012002900020039039
:105950000220049001A90648FDF7A4F90122510391
:105960000348FDF751FB05B000BD000000100240E8
:105970000010014010B5012251030248FDF744FB1D
:1059800010BD00000010014010B500224FF400517E
:105990000148FDF739FB10BD0010014010B5FDF7BF
:1059A0004BFB4FF4E01000F0F9FF4820FFF7DEFE5C
:1059B0004FF416524FF4E131104601F093FCFFF71B
:1059C000ABFFFFF7C9FCFEF7C3FEFCF7B7FCFFF720
:1059D00033FF002010BD00002DE9F04105460E46C2
:1059E0002948076800202949096881F85900274893
:1059F0000068001D01F0C6FC50B92448006890F80A
:105A00002C10012088402249096881432048016008
:105A1000681CD8B9D6B11F4948681C490968886014
:105A20001A4982680968CA6018490968091D8268AC
:105A3000516016490968091D8160164A13490968B1
:105A40004A6111460968491C11601AE07C190F4827
:105A500000684460BC4207D20C480168091D0E482A
:105A6000006801F0C1FC0CE008480168091D0B4802
:105A7000006801F0B9FC0A480068844201D2084875
:105A80000460BDE8F0810000700000205C00002090
:105A90007400002020080020640000206000002026
:105AA0008C00002010B5044601F0C4FC31480068A9
:105AB000401C304908603048006840B92E480460F6
:105AC0000846006801280DD100F016FA0AE02B48BC
:105AD000006838B928480068C06AE16A884201D87D
